:10060200303132333435363738393A2D53756E4DF1
:100612006F6E5475655765645468754672695361A7
:100622007446435320004E49434520544F204D45C4
:0F06320020594F550032303831363031313700D2
:0F086E0001140901160201130001080001110015
:0F06DF008F807F057E001206EED2907F057E0091
:1006EE00E4FDFCC3ED9FEC9E5015E4FBFA0BBB0042
:1006FE00010AEB64784A70F50DBD00010C80E4AE82
:03070E0004AF0530
:0107110022C5
:010892002243
:10076300C291C2907F3812077D7F0C12077D7F06EE
:0A07730012077D7F0112077D7F90C1
:0A077D00C291C2921206DFC2902260
:1006410012066E7F2012066E7F2012066E7F201228
:10065100066E7F2012066E7F2012066E7F20120624
:0D0661006E7F2012066E7F2012066E7F2035
:08066E00D2921206DFC29022B5
:10078700E4FEEF25E0FFC2971208929296120892B4
:10079700D2971208920EBE08E9C297120892D29613
:0307A700020892B3
:10055B007F8012077D120763E4F9E990062893FF69
:10056B0012066E7F0A7E001206EE09B90EEC7FD0E2
:10057B0012077DE4F9E990063793FF12066E7F0AA6
:10058B007E001206EE09B909ECE4F97F1812077D1B
:10059B007F2C7E011206EE09B910F07FDC7E05126E
:0705AB0006EE7F0102077D4F
:1005B20012076312055BD29600000000D29700007A
:1005C2000000E4FDFF120828E4FD7F011208287DE7
:1005D200507F021208287D597F031208287D087F68
:1005E200041208287D257F051208287D057F061242
:1005F20008287D057F071208287D187F0802082831
:10026100E50860597F0612077DE50814B4070050C0
:100271004C90028075F003A4C58325F0C5837302F9
:10028100029502029902029D0202A10202A5020246
:10029100A90202AD7F8F80167F8C80127F89800E2C
:1002A1007FCE800A7FC980067FC680027FC3120786
:1002B1007D7F0F12077D7F207E031206EE7FC01225
:1002C100077D900604E493FF12066E900602E49304
:1002D100FF12066E7FC212077DE50AC4F854F0C80A
:1002E10068FEE50BC4540F482402F58274063EF5FE
:1002F10083E493FF12066E7E00E50B540F2402F592
:1003010082EE3406F583E493FF12066E90060DE447
:1003110093FF12066EE510541FC4540F900602930A
:10032100FF12066EE510540F93FF12066E90060D34
:10033100E493FF12066EE50D543FC4540F9006027C
:1003410093FF12066EE50D540F93FF12066E7FCDDB
:1003510012077DE4F512E509540775F003A425128F
:10036100F582E435F0F583E582240EF582E58334E8
:1003710006F583E493FF12066E0512E512C394039A
:1003810040D47F8812077DE50E543FC4540F900678
:100391000293FF12066EE50E540F93FF12066E9044
:1003A100060CE493FF12066EE50F547FC4540F90C0
:1003B100060293FF12066EE50F540F93FF12066EAD
:1003C10090060CE493FF12066EE50C547FC4540FA3
:1003D10090060293FF12066EE50C540F93FF12066E
:1003E1006E7F8012077D7F5412066E7F4912066E62
:0F03F1007F4D12066E7F451206647F2002066E56
:10084000D2960000000000000000D29700000000D7
:07085000C296000000002227
:10085700C2960000000000000000D29700000000D0
:07086700D296000000002200
:0807CC001208407FA21207870A
:1007D400D29712089230960BE518C394FA50040588
:0807E4001880F2C2970208928E
:10073E00C297120892D296120892E4FED29712082D
:10074E0092EF25E0FDA296E4334DFFC29712089278
:04075E000EBE08E8DB
:010762002274
:10082800AC071207CCAF041207871207D4AF051222
:0808380007871207D4020857DC
:0207EC00AD0757
:1007EE001207CCAF051207871207D41208407FA359
:0C07FE001207871207D412073E1208579A
:01080A0022CB
:100676007F021207EC8F0C7F031207EC8F0F7F04AB
:100686001207EC8F0E7F051207EC8F0D7F061207FF
:10069600EC8F097F071207EC8F107F081207EC75A5
:0506A6000A008F0B2289
:10040000E50860597F0612077DE50814B40700501F
:100410004C90041F75F003A4C58325F0C5837302B7
:10042000043402043802043C02044002044402047E
:100430004802044C7FC680167FC380127FC0800EA6
:100440007F8D800A7F8880067F8580027F821207E9
:100450007D7F0F12077D7F207E031206EE7F8012C4
:10046000077D7F2012066E7F4312066E7F4C1206B8
:100470006E7F4F12066E7F4312066E7F4B12066E22
:100480007F3A1206417FC012077D1206679006026E
:10049000E493FF12066E90060BE493FF12066E7F44
:1004A0003A12066E900602E493FF12066E9006045E
:1004B000E493FF12066E7F3A12066E900602E493F2
:0F04C000FF12066EE493FF1206417F2002066EC4
:1007AA00E513B50C13E516B50F0EE514B50E09E5FC
:1007BA000CC394065002C2B77FF47E011206EED231
:0207CA00B72254
:07088A0075A0F7AFA07E008E
:010891002244
:1000030012088AAB07BBB70CE508B40805E4F5088A
:1000130080020508BB770BE50870057508078002A9
:0A0023001508EB64E7600302014DCD
:10002D00E50814B40700400302014D90004675F039
:10003D0003A4C58325F0C5837302005B020065022E
:10004D0000900200BB0200D50200FD020125E4F57F
:10005D0017AD177F0202014A7F031207ECEF547FA1
:10006D00F517B45905E4F5178012E517540FFFBFC6
:10007D00090874072517F51780020517AD177F03BB
:10008D0002014A7F041207ECEF543FF517B4230524
:10009D00E4F5178012E517540FFFBF090874072503
:1000AD0017F51780020517AD177F0402014A7F0669
:1000BD001207ECEF5407F517B40605E4F5178002A7
:1000CD000517AD177F0680757F051207ECEF547F7E
:1000DD00F517B43105E4F5178010E517540FFFBF80
:1000ED00090674072517F5170517AD177F05804D00
:1000FD007F071207ECEF547FF517B41205E4F517DF
:10010D008010E517540FFFBF090674072517F51763
:10011D000517AD177F0780257F081207EC8F17E5B0
:10012D0017B49905E4F5178010E517540FFFBF09B3
:10013D000674072517F5170517AD177F0812082840
:08014D00EB64D76003020260BD
:10015500E50814B40700400302026090016E75F0D3
:1001650003A4C58325F0C5837302018302018D02B3
:1001750001B30201D90201F202021702023CE4F5C1
:1001850017AD177F0202025D7F031207ECEF547F64
:10019500F5177005751759800EE517540F7006741D
:1001A500F92517F5171517AD177F0302025D7F04B3
:1001B5001207ECEF543FF5177005751723800EE510
:1001C50017540F700674F92517F5171517AD177F16
:1001D5000402025D7F061207ECEF5407F517700560
:1001E50075170680021517AD177F06806B7F051200
:1001F50007ECEF547FF5177005751731800EE5177D
:10020500540F700674F92517F5171517AD177F05E7
:1002150080467F071207ECEF547FF51770057517B9
:1002250012800EE517540F700674F92517F517158A
:1002350017AD177F0780217F081207ECEFF51770C0
:1002450005751799800EE517540F700674F9251773
:0B025500F5171517AD177F08120828D9
:01026000227B
:10080B00E4F511E511B40103D38001C3400CC2B769
:0D081B00120003120261051180E9D2B7221C
:100712007F041207EC8F12E50F7020E50CD39512BF
:100722005019E50EC394245012E50EC39400400BF9
:0C073200C2B77F207E031206EED2B72271
:0C087E00E50C7007E50F700312080B2258
:1006AB001205B2A294E4FE33FFE470F7EF601A1464
:1006BB0070F112026112088A1200031206761207F9
:1006CB00AA12087E12071280DA12040012088A128C
:0406DB00000380CFC9
:030000000204CF28
:0C04CF00787FE4F6D8FD75811802051650
:1004DB000206ABE493A3F8E493A34003F68001F286
:1004EB0008DFF48029E493A3F85407240CC8C33322
:1004FB00C4540F4420C8834004F456800146F6DFF1
:10050B00E4800B010204081020408090086EE47E0A
:10051B00019360BCA3FF543F30E509541FFEE493E5
:10052B00A360010ECF54C025E060A840B8E493A3AC
:10053B00FAE493A3F8E493A3C8C582C8CAC583CAD7
:10054B00F0A3C8C582C8CAC583CADFE9DEE780BE8F
:01087D00007A
:00000001FF
